:100000000C942F010C944C010C944C010C944C0159
:100010000C944C010C944C010C944C010C944C012C
:100020000C944C010C944C010C944C010C94CA049B
:100030000C944C010C944C010C94C7040C944C018E
:100040000C944C010C944C010C949C050C944C01A8
:100050000C944C010C949C010C944C010C944C019C
:100060000C944C010C944C01000306050C0F0A097A
:100070000B080D0E07040102424954616C696E6F52
:100080005F76342E300A001F21232527292A2C2EA3
:1000900030313334363738393A3B3C3C3D3D3E3ED7
:1000A0003E3E3E3D3D3C3C3B3A39383736343331B9
:1000B000302E2C2A29272523211F1D1B1917151423
:1000C00012100E0D0B0A08070605040302020101B7
:1000D0000000000000010102020304050607080AEF
:1000E0000B0D0E1012141517191B1D1F23272A2E76
:1000F000313437393B3C3D3E3E3D3C3B3937343172
:100100002E2A27231F1B1714100D0A0705030201AF
:10011000000001020305070A0D1014171BFF017EE2
:1001200002F5025D03AE03E503FD03F503CD03898C
:10013000032B03BB023F02BF014301D30075003113
:10014000000900010019005000A10009018001FF11
:10015000019D022B039C03E503FE03E5039C032B97
:10016000039D02FF016101D3006200190000001924
:10017000006200D3006101B501D103E502520229FA
:1001800002D20205002103B40308004C031103FC52
:1001900003E900AD0391026C0012010D0338036BFB
:1001A00000E101E000B00348016D030A018203C1D0
:1001B0000009032000910244028101D9002A03951D
:1001C00000F4010D00BF00F0015A039000ED02C3DE
:1001D000022300F401E2037300F802B801B801B889
:1001E00001BB01C801D401DD01E001D801C301B8A0
:1001F00001B801B801B801B5019F014302BF02E493
:10020000018801B701B801B801B801B801B801B857
:1002100001B801B801BE01C801D201DA01E201E86A
:1002200001EE01F101F301F301ED01E201D301C09F
:1002300001B801B801B901C201C201B901B8014157
:10024000542B42415544380041542B4E414D456298
:100250006974616C696E6F00030201000706112466
:100260001FBECFEFD8E0DEBFCDBF11E0A0E0B1E010
:10027000E6EBFBE002C005900D92A430B107D9F780
:1002800011E0A4E0B1E001C01D92A131B107E1F796
:100290000E949F050C94D9050C94000030910F0129
:1002A000232F2350233008F43DC026E0231BDC011C
:1002B000A20FB11D273008F03CC0E0E09D91809175
:1002C000C00085FFFCCF9093C600F0E0E859FF4FD7
:1002D000E491892F82958F70E827F0E0E859FF4F6D
:1002E000E4919F70E9272F5F273041F7F0E0E8594C
:1002F000FF4FE49120910E01822F8F70E827F0E0EC
:10030000E859FF4FE49130E1239FC0011124E82B0D
:100310008091C00085FFFCCFE093C6002F5F209343
:100320000E01089525E0231BDC01A20FB11DE0E0C2
:10033000C5CFE8E6F0E0DDCF1895982F9064909354
:100340007C00889520917800309179003370863058
:1003500011F0C90108953093060120930501C901E8
:100360000895EF92FF920F931F93CF93DF93CDB732
:10037000DEB727970FB6F894DEBF0FBECDBF88E17A
:100380008093C10010926E0010926F00789480E00C
:1003900090E890930601809305018E010F5F1F4F37
:1003A00087E0F80111928A95E9F74D9B02C080E839
:1003B0008F834E9B03C08F8180648F834F99AAC027
:1003C000189B03C08F8180618F838DE880937A00B2
:1003D000EE80FF80809107010E949D01880F991F88
:1003E000880F991F8E299F299F838E8380910F01EB
:1003F000823008F45BC0ED80FE80809108010E948D
:100400009D018E299F299E838D8380910F018330CA
:1004100008F44CC0EB80FC80809109010E949D0192
:100420000024969587950794969587950794982F1D
:10043000802D8E299F299C838B8380910F0184308E
:10044000A8F1EA80FB8080910A010E949D018295BB
:100450009295907F9827807F98278E299F299B834C
:100460008A8380910F01853008F1E980FA808091BC
:100470000B010E949D01807F9370880F991F880F48
:10048000991F8E299F299A83898380910F01863035
:1004900068F0F98080910C010E949D0192958295EF
:1004A0008F7089279F7089278F2989838091050103
:1004B000909106018115904839F110927A00C80197
:1004C0000E944E01209105013091060180910101A9
:1004D000909102012817390708F45A9AF89488E98C
:1004E0008093C10082E080936E0080936F00279616
:1004F0000FB6F894DEBF0FBECDBFDF91CF911F9135
:100500000F91FF90EF9008954A99D7CF86E00E940F
:100510009D01D3CF8F8180628F8352CFA82FB0E00F
:10052000A95FBE4F8C91823069F178F0843009F474
:100530003FC0E8F4E42FF0E0EE0FFF1FE35EFE4F54
:10054000859194919C01C9010895882331F08130EF
:1005500021F120E030E0C9010895E62FF0E0EE0F30
:10056000FF1FE552FE4F25913491C9010895853052
:1005700081F7E0911001F0E0E957FF4F249130E05E
:10058000C9010895E22FF0E0EE0FFF1FE15BFE4F7F
:10059000859194919C01C9010895E62FF0E0EE0F3A
:1005A000FF1FE958FE4F859194919C01C901089560
:1005B000E62FF0E0E551FF4FE4912E2F30E0C90126
:1005C0000895AF92BF92CF92DF92EF92FF920F9376
:1005D0001F93CF93DF93CDB7DEB727970FB6F8946D
:1005E000DEBF0FBECDBF8E010F5F1F4F86E0F8014B
:1005F00011928A95E9F780910E018295807F8F8311
:1006000080911001823308F4A2C0AEECBA2EB80E6D
:10061000F8E1FB1508F099C0F7EEDF2EDB0C9DEC3E
:10062000899FC12C1124C2947FE0C72294E1C99E06
:1006300080191124C82EEE80FF80282F4D2D6B2DA0
:1006400080E00E948E02880F991F880F991F8E29C3
:100650009F299F838E83A0900F01E1E0EA1508F0A7
:1006600059C0ED80FE802C2D4D2D6B2D81E00E9418
:100670008E028E299F299E838D83F2E0AF1609F4A6
:1006800049C02C2D4D2D6B2D82E00E948E0200243E
:10069000969587950794969587950794982F802D22
:1006A0009C838B8383E0A816A9F1EA80FB802C2D24
:1006B0004D2D6B2D0E948E0282959295907F9827EA
:1006C000807F98278E299F299B838A8394E0A9168F
:1006D00009F1E980FA802C2D4D2D6B2D84E00E94CC
:1006E0008E02002496958795079496958795079492
:1006F000982F802D8E299F299A838983E5E0AE1655
:1007000049F0F9802C2D4D2D6B2D85E00E948E0235
:100710008F298983C8010E944E01809110018F5F4B
:100720008436B9F08093100127960FB6F894DEBF97
:100730000FBECDBFDF91CF911F910F91FF90EF9032
:10074000DF90CF90BF90AF900895DB2C68CFB82E8C
:100750005FCF10921001E8CF806680937C0080917B
:100760007A00806480937A0080917A0086FDFCCFC5
:100770008091790008952A9A8CE284B980E380936D
:100780007E0086E880937A0082E58CBD2A9884E614
:1007900080937C0080917A00806480937A008091BD
:1007A0007A0086FDFCCF9091790085E680937C00ED
:1007B00080917A00806480937A0080917A0086FD2F
:1007C000FCCF809179009EBD0DB407FEFDCF8EBD9C
:1007D0000DB407FEFDCF5A9A2FEF80E792E021502B
:1007E00080409040E1F700C0000084E680937C00E8
:1007F00080917A00806480937A0080917A0086FDEF
:10080000FCCF9091790085E680937C0080917A00FE
:10081000806480937A0080917A0086FDFCCF80917D
:1008200079009EBD0DB407FEFDCF8EBD0DB407FE51
:10083000FDCF5A985B9A2FEF80E792E021508040DD
:100840009040E1F700C0000084E680937C00809136
:100850007A00806480937A0080917A0086FDFCCFD4
:100860009091790085E680937C0080917A00806485
:1008700080937A0080917A0086FDFCCF8091790088
:1008800020E120937A004C9B9FEF9EBD0DB407FEA4
:10089000FDCF8EBD0DB407FEFDCF1CBC83E390E001
:1008A0009093C5008093C40088E08093C1002FEF2F
:1008B00089E698E1215080409040E1F700C00000B7
:1008C00088E492E00E94DF042FEF89E698E121504E
:1008D00080409040E1F700C000008FE392E00E946A
:1008E000DF042FEF89E698E1215080409040E1F746
:1008F00000C000005B980895809104018823A9F14D
:100900008091B40090910001891B8093B400809184
:10091000B4008823C9F180918100882321F080915F
:100920000D01882309F14A991FC085E880937A0058
:1009300086E480937C0080917A00806480937A00C2
:1009400080917A0086FDFCCF8091780090917900AB
:10095000937020910101309102018217930708F4EE
:100960005A9A80E180937A0008958091B400909122
:100970000001890F8093B4008091B4008A3F59F63A
:1009800081E080930401C7CF10920401C4CF0E947C
:100990007C041895199909C01092810085E0809314
:1009A000000184E68093B40009C080910D01882382
:1009B00019F00E94E10202C00E94B1011895FC01E9
:1009C0009491992351F08091C00085FFFCCF9093C2
:1009D000C600319694919111F6CF08952091C600EA
:1009E00080918100811110C0822F83708130A0F42A
:1009F00026952695822F90E0815F9D4F909302016E
:100A0000809301015A980895222349F1822F83701F
:100A1000833009F446C00895833050F5823009F4DC
:100A200067C010920D0110920E0160910D01E8E572
:100A3000F2E040E030E00BC05491DC01A95FBE4F12
:100A40005C934F5F26953F5F3196363061F122FF10
:100A5000F9CF842F90E0662379F3532FEECF1092D5
:100A6000810085E08093000184E68093B4000895BE
:100A7000833009F0BDCF273051F1207C203409F4B8
:100A800047C010F1203809F439C0203C21F68CE72A
:100A900090E090938900809388008BE0809303011D
:100AA000089525B9089540930F0110928500109282
:100AB0008400809103018093810082E38093000190
:100AC00084E68093B4000895222361F10895E8E755
:100AD000F0E09491992309F49ECF8091C00085FFA6
:100AE000FCCF9093C600319694919111F6CF089562
:100AF00081E080930D011092100195CF81EE94E07A
:100B000090938900809388008BE08093030108957F
:100B100084E39CE090938900809388008CE080932C
:100B20000301089581E19AE79093890080938800FA
:100B30008CE08093030108950E94EE04189580EFE5
:100B40008BB983E085B98CE08AB94C9B2FC08CE3CC
:100B500084B988E090E09093C5008093C40022E0BF
:100B60002093C00088E98093C10088EC87BD24BD34
:100B700085E085BD20936E008CE790E0909389001E
:100B80008093880020936F0083E28093B00081E01F
:100B90008093B1009FE090937E0090E890BF83BF68
:100BA00084E88093640078948895FECF0E94BB030C
:060BB000CECFF894FFCF48
:040BB600050F020B1A
:00000001FF
